:020000040000FA
:0400000047EF3FF097
:107E38001CEF3FF0120039EC3FF02EEC3FF01CEC49
:107E48003FF012001FEC3FF05AEC3FF028EF3FF0F4
:107E580000EF00F0950ED56E670ED36EB50EB16EBD
:107E6800000E7E6E000E7F6E1200000E926E000EE7
:107E7800946E938093929394939693989568969022
:107E8800968296841200E10EF66E7E0EF76E000E54
:107E9800F86E00EE01F010EE51F00900F5CFEEFF9C
:107EA800E550E150FAE1000126EF3FF0000E5B6E6D
:107EB800370E526E000E536E5BC054F0010E556EB5
:107EC80099EC3FF05B2A080E5B646DEF3FF06FEFB3
:087ED8003FF05CEF3FF01200E7
:107EE100890F00890F01890F02890F03890F048906
:107EF1000F05890F06890F078A0F018C0F008C0F60
:107F0100018C0F028C0F038C0F048C0F058C0F0654
:107F11008C0F078A0F008B0F008B0F028B0F018BC9
:107F21000F058B0F068B0F078A0F038A0F048D0F26
:107F3100005450030DF3CF56F0F4CF57F052505682
:107F4100245A6E5550D8B4A8EF3FF0AAEF3FF0CABB
:107F5100EF3FF05450030D52C056F053C057F0F3A9
:107F6100505626F4505722020E5624D96E000E5751
:107F710020DA6EDF50586E010E596E582AC3EF3F5A
:107F8100F0D8905936582EC1EF3FF059505A12E9A6
:107F9100EF3FF05450030D52C056F053C057F0F369
:107FA100505626F4505722020E5624D96E000E5711
:107FB10020DA6EDF50586E010E596E582AE3EF3FFA
:107FC100F0D8905936582EE1EF3FF05950FF0A5A38
:107FD100165450030DF3CF56F0F4CF57F0565052CC
:107FE10024D96E57505320DA6EDECF58F0DDCF59C9
:0F7FF100F058C0D9FF59C0DAFF5AC0DFFF1200A5
:020000040020DA
:08000000FFFFFFFFFFFFFFFF00
:020000040030CA
:0E000000FF081F1EFF8B81FF0FC00FE00F4097
:00000001FF
