:020000040000FA
:0400000024EF3FF0BA
:107DFA000BEC3FF000EF00F0950ED56E670ED36ED8
:107E0A001200000ED76E000ED66E1200F29E16EC0D
:107E1A003FF006EC3FF001EC3FF0F28E4DEC3FF004
:107E2A001200000E926E000E946E938093929394B9
:107E3A009396939895689690968296841200EB0E84
:107E4A00F66E7E0EF76E000EF86E00EE01F010EE82
:107E5A0051F00900F5CFEEFFE550E150FAE10001DB
:107E6A00FDEF3EF0000E5D6E370E526E000E536E41
:107E7A005DC054F0000E556E9EEC3FF05D2A080E70
:107E8A005D644AEF3FF04CEF3FF039EF3FF01200EC
:107E9A00000E5E6E06EC3FF037EC3FF06CEF3FF001
:107EAA00370E526E000E536E5EC054F0010E556EC0
:107EBA009EEC3FF0F2A464EF3FF066EF3FF06CEF08
:107ECA003FF037EC3FF05E2A06EC3FF0F294080EE2
:107EDA005E6472EF3FF074EF3FF055EF3FF012002F
:107EEB00890F00890F01890F02890F03890F0489FC
:107EFB000F05890F06890F078A0F018C0F008C0F56
:107F0B00018C0F028C0F038C0F048C0F058C0F064A
:107F1B008C0F078A0F008B0F008B0F028B0F018BBF
:107F2B000F058B0F068B0F078A0F038A0F048D0F1C
:107F3B00005450030DF3CF56F0F4CF57F056505278
:107F4B0024D96E57505320DA6EDECF5BF0DDCF5C59
:107F5B00F05550D8B4B4EF3FF0B6EF3FF0DAEF3F47
:107F6B00F05450030D52C056F053C057F0F3505617
:107F7B0026F4505722020E5624D96E000E5720DAE3
:107F8B006EDF50586E010E596E582ACFEF3FF0D866
:107F9B00905936582ECDEF3FF05BC0D9FF5CC0DA5D
:107FAB00FF5950DF12FFEF3FF05450030D52C056F4
:107FBB00F053C057F0F3505626F4505722020E568A
:107FCB0024D96E000E5720DA6EDF50586E010E5911
:107FDB006E582AF3EF3FF0D8905936582EF1EF3FF9
:107FEB00F05950FF0A5A6E5BC0D9FF5CC0DAFF5ADA
:057FFB0050DF1612002A
:020000040020DA
:08000000FFFFFFFFFFFFFFFF00
:020000040030CA
:0E000000FF081F1EFF8B81FF0FC00FE00F4097
:00000001FF
