:020000040000FA
:0400000023EF00F0FA
:100008004982F2A40AEF00F00CEF00F021EF00F0B3
:10001800F29425EC01F08AA414EF00F018EF00F038
:10002800376A372A19EF00F0376A374637468A5059
:100038003718FB0B37188A6E482A4992110087EF48
:1000480000F03A50030DF3CF3CF0F4CF3DF03C50B4
:100058003824D96E3D503920DA6EDECF41F0DDCF3D
:1000680042F03B50D8B43BEF00F03DEF00F061EFB9
:1000780000F03A50030D38C03CF039C03DF0F35061
:100088003C26F4503D22020E3C24D96E000E3D2041
:10009800DA6EDF503E6E010E3F6E3E2A56EF00F0DC
:1000A800D8903F363E2E54EF00F041C0D9FF42C0F1
:1000B800DAFF3F50DF1286EF00F03A50030D38C0E8
:1000C8003CF039C03DF0F3503C26F4503D22020E7E
:1000D8003C24D96E000E3D20DA6EDF503E6E010ED4
:1000E8003F6E3E2A7AEF00F0D8903F363E2E78EFEA
:1000F80000F03F50FF0A406E41C0D9FF42C0DAFF0E
:100108004050DF161200E00EF66E010EF76E000E7C
:10011800F86E00EE60F010EE1BF00900F5CFEEFF70
:10012800E550E150FAE1620EF66E010EF76E000E30
:10013800F86E00EE01F010EE36F00900F5CFEEFF94
:10014800E550E150FAE1486A476A466A456A446AF6
:1001580049904992000118EF01F08C0F008C0F01B3
:100168008C0F028C0F038C0F048C0F058C0F068CE0
:100178000F078A0F008B0F008B0F028B0F018B0F5D
:10018800058B0F068B0F078A0F038A0F048D0F004C
:10019800000E436E1C0E386E000E396E43C03AF0E6
:1001A800010E3B6E25EC00F0432A080E4364DFEF96
:1001B80000F0E1EF00F0CEEF00F01200000E926EBA
:1001C800000E946E93809392939493969398956867
:1001D8009690968296841200890F00890F01890FE4
:1001E80002890F03890F04890F05890F06890F07F4
:0301F8008A0F016A
:1001FC001C0E386E000E396E080E3A6E000E8AB464
:10020C00010E3B6E25EC00F01200F29EE2EC00F0C9
:10021C008A9420EC01F0F28EF28CF28AD58ECCEC22
:10022C0000F012000BEC01F0FEEC00F01AEF01F004
:10023C0023EF00F0950ED56E670ED36E1200000EF4
:08024C00D76E000ED66E120001
:020000040020DA
:08000000FFFFFFFFFFFFFFFF00
:020000040030CA
:0E000000FF081F1EFF8B81FF0FC00FE00F4097
:00000001FF
