:020000040000FA
:04000000B2EF3FF02C
:107F58001200E0EC3FF0BBEC3FF0120000EE01F045
:107F6800100EEE6AE806FDE10001D3EF3FF0950E32
:107F7800D56E670ED36EB50EB16E000E7E6E000E16
:107F88007F6E1200136E1350D8B4CDEF3FF0CFEFD1
:107F98003FF0D2EF3FF01250ACEC3FF01200ADECE6
:107FA8003FF0EEEC3FF0000E126E000EC6EC3FF014
:107FB800D7EF3FF000EF00F0000E926E000E946EC7
:107FC80093809392939493969398956896909682BB
:107FD80096841200000E8B6E8BB002D08D9001D06B
:107FE8008D808DB002D08A9801D08A888AA802D064
:087FF8008A8601D08A9612006E
:020000040020DA
:08000000FFFFFFFFFFFFFFFF00
:020000040030CA
:0E000000FF081F1EFF8B81FF0FC00FE00F4097
:00000001FF
