:020000040000FA
:0400000012EF00F00B
:100008005182F2A40AEF00F00CEF00F010EF00F0BC
:10001800F294E3EC01F0502A5192110032EF01F012
:100028003950030DF3CF3BF0F4CF3CF03B5037246D
:10003800D96E3C503820DA6EDECF40F0DDCF41F08B
:100048003A50D8B42AEF00F02CEF00F050EF00F04F
:100058003950030D37C03BF038C03CF0F3503B2615
:10006800F4503C22020E3B24D96E000E3C20DA6E7E
:10007800DF503D6E010E3E6E3D2A45EF00F0D890F0
:100088003E363D2E43EF00F040C0D9FF41C0DAFFB5
:100098003E50DF1275EF00F03950030D37C03BF0CA
:1000A80038C03CF0F3503B26F4503C22020E3B246F
:1000B800D96E000E3C20DA6EDF503D6E010E3E6EAA
:1000C8003D2A69EF00F0D8903E363D2E67EF00F0EC
:1000D8003E50FF0A3F6E40C0D9FF41C0DAFF3F5093
:1000E800DF161200000E436ED7EC01F037C044F063
:1000F80038C045F03B50445C3C504558D8B087EF79
:1001080000F089EF00F0A6EF00F0FF0E3F6E7F0EC3
:10011800406E3B50445C416E3C504558426E3F50E7
:100128004126405042223D50415C3E504258D8A0A2
:10013800A0EF00F0A2EF00F0B9EF00F0010E436E5F
:10014800B9EF00F03B50445C3F6E3C504558406E60
:100158003D503F5C3E504058D8A0B5EF00F0B7EF97
:1001680000F0B9EF00F0A2EF00F0435012004C503D
:10017800D8A4C1EF00F0C3EF00F0CDEF00F0D7EC4A
:1001880001F037C047F038C048F050C04BF0010EBE
:100198004C6E1C0E376E000E386E4DC039F0010ED5
:1001A8003A6E14EC00F047C03BF048C03CF02E0E0D
:1001B8003E6EE00E3D6E76EC00F00009D8B4E7EF35
:1001C80000F0E9EF00F0EEEF00F078EC01F0000E3F
:1001D8004C6E4D2A090E4D18D8A4F5EF00F0F7EF34
:1001E80000F0F9EF00F0000E4D6E12004F50D8A449
:1001F80000EF01F002EF01F00EEF01F0D7EC01F093
:1002080037C049F038C04AF050C04EF0010E4F6E6A
:1002180031EF01F049C03BF04AC03CF0270E3E6E7A
:10022800100E3D6E76EC00F00009D8B41EEF01F018
:1002380020EF01F031EF01F08AA425EF01F029EF5A
:1002480001F0466A462A2AEF01F0466A46464646C3
:100258008A504618FB0B46188A6E1200640EF66E1A
:10026800030EF76E000EF86E00EE60F010EE1BF055
:100278000900F5CFEEFFE550E150FAE1BA0EF66E4F
:10028800020EF76E000EF86E00EE01F010EE36F07A
:100298000900F5CFEEFFE550E150FAE100EE47F036
:1002A8000A0EEE6AE806FDE1519051920001CDEF89
:1002B80001F08C0F008C0F018C0F028C0F038C0F38
:1002C800048C0F058C0F068C0F078A0F008B0F000C
:1002D8008B0F028B0F018B0F058B0F068B0F078A75
:1002E8000F038A0F048D0F00000E426E1C0E376E2E
:1002F800000E386E42C039F0000E3A6E14EC00F071
:10030800422A080E42648BEF01F08DEF01F07AEF7C
:1003180001F01200000E426E1C0E376E000E386E91
:1003280042C039F0010E3A6E14EC00F0422A080E71
:100338004264A1EF01F0A3EF01F090EF01F0120089
:10034800000E926E000E946E9380939293949396FF
:10035800939895689690968296841200890F0089E2
:100368000F01890F02890F03890F04890F05890F6F
:0703780006890F078A0F013F
:10038000F29EA4EC01F08A94DEEC01F0F28EF28C85
:10039000F28AD58E8EEC01F01200C0EC01F0FAEC7E
:1003A00000F0BBEC00F0CFEF01F012EF00F0D750FF
:1003B000396ED650376E39C038F01200950ED56EB2
:1003C000670ED36E1200000ED76E000ED66E1200AE
:020000040020DA
:08000000FFFFFFFFFFFFFFFF00
:020000040030CA
:0E000000FF081F1EFF8B81FF0FC00FE00F4097
:00000001FF
