:020000040000FA
:0400000012EF00F00B
:100008004D82F2A40AEF00F00CEF00F010EF00F0C0
:10001800F294C8EC01F04C2A4D92110029EF01F03E
:10002800B7EC01F037C03DF038C03EF04B50D8A4D3
:1000380020EF00F022EF00F02EEF00F0B7EC01F017
:1000480037C048F038C049F04CC04AF0010E4B6E3A
:1000580090EF00F048503D5C49503E58D8B037EF1B
:1000680000F039EF00F06BEF00F04C504A5CD8B06C
:1000780040EF00F042EF00F090EF00F0481C3B6EBC
:10008800491C3C6E3D503B263E503C22110E3B5CC9
:10009800270E3C58D8A053EF00F055EF00F090EF32
:1000A80000F08AB45AEF00F05DEF00F0010E5EEF49
:1000B80000F0000EFF0A3B6E3B463B468A503B1859
:1000C800FB0B3B188A6E000E4B6E90EF00F0485009
:1000D8003D5C3B6E49503E583C6E110E3B5C270E12
:1000E8003C58D8A07AEF00F07CEF00F090EF00F0D9
:1000F8008AB481EF00F084EF00F0010E85EF00F084
:10010800000EFF0A3B6E3B463B468A503B18FB0BF2
:100118003B188A6E67EF00F012003950030DF3CFD9
:100128003BF0F4CF3CF03B503724D96E3C5038209C
:10013800DA6EDECF40F0DDCF41F03A50D8B4A7EF09
:1001480000F0A9EF00F0CDEF00F03950030D37C0F3
:100158003BF038C03CF0F3503B26F4503C22020EF2
:100168003B24D96E000E3C20DA6EDF503D6E010E46
:100178003E6E3D2AC2EF00F0D8903E363D2EC0EFCD
:1001880000F040C0D9FF41C0DAFF3E50DF12F2EF65
:1001980000F03950030D37C03BF038C03CF0F35045
:1001A8003B26F4503C22020E3B24D96E000E3C2024
:1001B800DA6EDF503D6E010E3E6E3D2AE6EF00F02E
:1001C800D8903E363D2EE4EF00F03E50FF0A3F6ED9
:1001D80040C0D9FF41C0DAFF3F50DF161200000EC1
:1001E800476EBEEC01F06EEC01F020EF01F01C0E42
:1001F800376E000E386E47C039F0010E3A6E91EC3A
:1002080000F04C50436E446A4750456E466A010EF2
:100218004526000E46224350451807E1445046182B
:10022800D8A419EF01F01BEF01F020EF01F06EECFC
:1002380001F0472ABEEC01F0080E476426EF01F0F2
:1002480028EF01F0FBEF00F01200420EF66E030EED
:10025800F76E000EF86E00EE60F010EE1BF009006D
:10026800F5CFEEFFE550E150FAE1A60EF66E020E6C
:10027800F76E000EF86E00EE01F010EE36F0090091
:10028800F5CFEEFFE550E150FAE14C6A4B6A4A6A55
:10029800496A486A4D904D920001AFEF01F08C0F0A
:1002A800008C0F018C0F028C0F038C0F048C0F0530
:1002B8008C0F068C0F078A0F008B0F008B0F028B99
:1002C8000F018B0F058B0F068B0F078A0F038A0F01
:1002D800048D0F00000E426E1C0E376E000E386E35
:1002E80042C039F0000E3A6E91EC00F0422A080E36
:1002F800426481EF01F083EF01F070EF01F012002A
:10030800F29E93EC01F0BEEC01F08A94C3EC01F08C
:10031800F28EF28CF28AD58EF3EC00F01200000E09
:10032800926E000E946E9380939293949396939802
:1003380095689690968296841200890F00890F011D
:10034800890F02890F03890F04890F05890F068910
:050358000F078A0F01F0
:10035E0084EC01F014EC00F0B1EF01F012EF00F0BC
:10036E00D750396ED650376E39C038F01200000EA5
:10037E00D76E000ED66E1200950ED56E670ED36E2A
:0C038E001200000ED76E000ED66E12009A
:020000040020DA
:08000000FFFFFFFFFFFFFFFF00
:020000040030CA
:0E000000FF081F1EFF8B81FF0FC00FE00F4097
:00000001FF
