:020000040000FA
:0400000056EF03F0C4
:10060000008B0F008B0F028B0F018B0F058B0F06DA
:0D0610008B0F078A0F038A0F048D0F000067
:10061E00000E046E0450030D010EF324F66E060E4A
:10062E00F420F76E0900F5CFD9FF0900F5CFDAFFF8
:10063E00DF50036E0450030D020EF326000EF4225B
:10064E00010EF324F66E060EF420F76E0800F5CFB9
:10065E0001F0010E026E012A37EF03F0D890023638
:10066E00012E35EF03F0025003120450030D010E5C
:10067E00F324F66E060EF420F76E0900F5CFD9FFBF
:10068E000900F5CFDAFF03C0DFFF042A080E046469
:10069E0053EF03F055EF03F011EF03F012002E0E9F
:1006AE00F66E070EF76E000EF86E0900F5CF05F028
:1006BE000900F5CF06F00900F5CF07F0000EF86E31
:1006CE00060EF76E000185EF03F0000E926E000E1F
:1006DE00946E938093929394939693989568969034
:1006EE00968296841200950ED56E670ED36EB50E59
:1006FE00B16E000E7E6E000E7F6E12008DEC03F05A
:10070E000FEC03F087EF03F000EF00F06CEC03F05A
:10071E007AEC03F094EC03F0120094EF03F0120065
:03072E008C0F002D
:020000040020DA
:08000000FFFFFFFFFFFFFFFF00
:020000040030CA
:0E000000FF081F1EFF8B81FF0FC00FE00F4097
:00000001FF
